{
  "contractName": "TodosContract",
  "abi": [
    {
      "anonymous": false,
      "inputs": [
        {
          "indexed": false,
          "internalType": "address",
          "name": "recipient",
          "type": "address"
        },
        {
          "indexed": false,
          "internalType": "uint256",
          "name": "taskId",
          "type": "uint256"
        }
      ],
      "name": "AddTask",
      "type": "event"
    },
    {
      "anonymous": false,
      "inputs": [
        {
          "indexed": false,
          "internalType": "uint256",
          "name": "taskId",
          "type": "uint256"
        },
        {
          "indexed": false,
          "internalType": "bool",
          "name": "isDeleted",
          "type": "bool"
        }
      ],
      "name": "DeleteTask",
      "type": "event"
    },
    {
      "inputs": [
        {
          "internalType": "string",
          "name": "taskText",
          "type": "string"
        },
        {
          "internalType": "bool",
          "name": "isDeleted",
          "type": "bool"
        }
      ],
      "name": "addTasks",
      "outputs": [],
      "stateMutability": "nonpayable",
      "type": "function"
    },
    {
      "inputs": [],
      "name": "getMyTasks",
      "outputs": [
        {
          "components": [
            {
              "internalType": "uint256",
              "name": "id",
              "type": "uint256"
            },
            {
              "internalType": "string",
              "name": "taskText",
              "type": "string"
            },
            {
              "internalType": "bool",
              "name": "isDeleted",
              "type": "bool"
            }
          ],
          "internalType": "struct TodosContract.Task[]",
          "name": "",
          "type": "tuple[]"
        }
      ],
      "stateMutability": "view",
      "type": "function"
    },
    {
      "inputs": [
        {
          "internalType": "uint256",
          "name": "taskId",
          "type": "uint256"
        },
        {
          "internalType": "bool",
          "name": "isDeleted",
          "type": "bool"
        }
      ],
      "name": "deleteTask",
      "outputs": [],
      "stateMutability": "nonpayable",
      "type": "function"
    }
  ],
  "bytecode": "0x608060405234801561001057600080fd5b50610e59806100206000396000f3fe608060405234801561001057600080fd5b50600436106100415760003560e01c80633b310b5b146100465780636e13f81814610062578063aaba290714610080575b600080fd5b610060600480360381019061005b919061074b565b61009c565b005b61006a6101bf565b6040516100779190610960565b60405180910390f35b61009a600480360381019061009591906109ae565b6104b5565b005b60008080549050905060006040518060600160405280838152602001858152602001841515815250908060018154018082558091505060019003906000526020600020906003020160009091909190915060008201518160000155602082015181600101908161010c9190610bfa565b5060408201518160020160006101000a81548160ff0219169083151502179055505050336001600083815260200190815260200160002060006101000a81548173ffffffffffffffffffffffffffffffffffffffff021916908373ffffffffffffffffffffffffffffffffffffffff1602179055507f1f54e1ba1832d428fbd7e7792beaf62b1fc5a382c207ffd614209c1413e94fda33826040516101b2929190610d1c565b60405180910390a1505050565b60606000808054905067ffffffffffffffff8111156101e1576101e06105e8565b5b60405190808252806020026020018201604052801561021a57816020015b610207610596565b8152602001906001900390816101ff5790505b5090506000805b6000805490508110156103fb573373ffffffffffffffffffffffffffffffffffffffff166001600083815260200190815260200160002060009054906101000a900473ffffffffffffffffffffffffffffffffffffffff1673ffffffffffffffffffffffffffffffffffffffff161480156102d2575060001515600082815481106102af576102ae610d45565b5b906000526020600020906003020160020160009054906101000a900460ff161515145b156103e857600081815481106102eb576102ea610d45565b5b90600052602060002090600302016040518060600160405290816000820154815260200160018201805461031e90610a1d565b80601f016020809104026020016040519081016040528092919081815260200182805461034a90610a1d565b80156103975780601f1061036c57610100808354040283529160200191610397565b820191906000526020600020905b81548152906001019060200180831161037a57829003601f168201915b505050505081526020016002820160009054906101000a900460ff1615151515815250508383815181106103ce576103cd610d45565b5b602002602001018190525081806103e490610da3565b9250505b80806103f390610da3565b915050610221565b5060008167ffffffffffffffff811115610418576104176105e8565b5b60405190808252806020026020018201604052801561045157816020015b61043e610596565b8152602001906001900390816104365790505b50905060005b828110156104ab5783818151811061047257610471610d45565b5b602002602001015182828151811061048d5761048c610d45565b5b602002602001018190525080806104a390610da3565b915050610457565b5080935050505090565b3373ffffffffffffffffffffffffffffffffffffffff166001600084815260200190815260200160002060009054906101000a900473ffffffffffffffffffffffffffffffffffffffff1673ffffffffffffffffffffffffffffffffffffffff16036105925780600083815481106105305761052f610d45565b5b906000526020600020906003020160020160006101000a81548160ff0219169083151502179055507ff88a35c3d2016c409a46570b994a17b408dbc83c14a03f521512d50b85386d068282604051610589929190610dfa565b60405180910390a15b5050565b604051806060016040528060008152602001606081526020016000151581525090565b6000604051905090565b600080fd5b600080fd5b600080fd5b600080fd5b6000601f19601f8301169050919050565b7f4e487b7100000000000000000000000000000000000000000000000000000000600052604160045260246000fd5b610620826105d7565b810181811067ffffffffffffffff8211171561063f5761063e6105e8565b5b80604052505050565b60006106526105b9565b905061065e8282610617565b919050565b600067ffffffffffffffff82111561067e5761067d6105e8565b5b610687826105d7565b9050602081019050919050565b82818337600083830152505050565b60006106b66106b184610663565b610648565b9050828152602081018484840111156106d2576106d16105d2565b5b6106dd848285610694565b509392505050565b600082601f8301126106fa576106f96105cd565b5b813561070a8482602086016106a3565b91505092915050565b60008115159050919050565b61072881610713565b811461073357600080fd5b50565b6000813590506107458161071f565b92915050565b60008060408385031215610762576107616105c3565b5b600083013567ffffffffffffffff8111156107805761077f6105c8565b5b61078c858286016106e5565b925050602061079d85828601610736565b9150509250929050565b600081519050919050565b600082825260208201905092915050565b6000819050602082019050919050565b6000819050919050565b6107e6816107d3565b82525050565b600081519050919050565b600082825260208201905092915050565b60005b8381101561082657808201518184015260208101905061080b565b60008484015250505050565b600061083d826107ec565b61084781856107f7565b9350610857818560208601610808565b610860816105d7565b840191505092915050565b61087481610713565b82525050565b600060608301600083015161089260008601826107dd565b50602083015184820360208601526108aa8282610832565b91505060408301516108bf604086018261086b565b508091505092915050565b60006108d6838361087a565b905092915050565b6000602082019050919050565b60006108f6826107a7565b61090081856107b2565b935083602082028501610912856107c3565b8060005b8581101561094e578484038952815161092f85826108ca565b945061093a836108de565b925060208a01995050600181019050610916565b50829750879550505050505092915050565b6000602082019050818103600083015261097a81846108eb565b905092915050565b61098b816107d3565b811461099657600080fd5b50565b6000813590506109a881610982565b92915050565b600080604083850312156109c5576109c46105c3565b5b60006109d385828601610999565b92505060206109e485828601610736565b9150509250929050565b7f4e487b7100000000000000000000000000000000000000000000000000000000600052602260045260246000fd5b60006002820490506001821680610a3557607f821691505b602082108103610a4857610a476109ee565b5b50919050565b60008190508160005260206000209050919050565b60006020601f8301049050919050565b600082821b905092915050565b600060088302610ab07fffffffffffffffffffffffffffffffffffffffffffffffffffffffffffffffff82610a73565b610aba8683610a73565b95508019841693508086168417925050509392505050565b6000819050919050565b6000610af7610af2610aed846107d3565b610ad2565b6107d3565b9050919050565b6000819050919050565b610b1183610adc565b610b25610b1d82610afe565b848454610a80565b825550505050565b600090565b610b3a610b2d565b610b45818484610b08565b505050565b5b81811015610b6957610b5e600082610b32565b600181019050610b4b565b5050565b601f821115610bae57610b7f81610a4e565b610b8884610a63565b81016020851015610b97578190505b610bab610ba385610a63565b830182610b4a565b50505b505050565b600082821c905092915050565b6000610bd160001984600802610bb3565b1980831691505092915050565b6000610bea8383610bc0565b9150826002028217905092915050565b610c03826107ec565b67ffffffffffffffff811115610c1c57610c1b6105e8565b5b610c268254610a1d565b610c31828285610b6d565b600060209050601f831160018114610c645760008415610c52578287015190505b610c5c8582610bde565b865550610cc4565b601f198416610c7286610a4e565b60005b82811015610c9a57848901518255600182019150602085019450602081019050610c75565b86831015610cb75784890151610cb3601f891682610bc0565b8355505b6001600288020188555050505b505050505050565b600073ffffffffffffffffffffffffffffffffffffffff82169050919050565b6000610cf782610ccc565b9050919050565b610d0781610cec565b82525050565b610d16816107d3565b82525050565b6000604082019050610d316000830185610cfe565b610d3e6020830184610d0d565b9392505050565b7f4e487b7100000000000000000000000000000000000000000000000000000000600052603260045260246000fd5b7f4e487b7100000000000000000000000000000000000000000000000000000000600052601160045260246000fd5b6000610dae826107d3565b91507fffffffffffffffffffffffffffffffffffffffffffffffffffffffffffffffff8203610de057610ddf610d74565b5b600182019050919050565b610df481610713565b82525050565b6000604082019050610e0f6000830185610d0d565b610e1c6020830184610deb565b939250505056fea2646970667358221220ccf104843a559a851265ec9f0ffb23cd40b8dca9b920f14cc641056343d3653364736f6c63430008110033",
  "immutableReferences": {},
  "source": "// SPDX-Licence-Identifier: MIT\r\npragma solidity 0.8.17;\r\n\r\ncontract TodosContract {\r\n    event AddTask(address recipient, uint taskId);\r\n    event DeleteTask(uint taskId, bool isDeleted);\r\n\r\n    struct Task {\r\n        uint id;\r\n        string taskText;\r\n        bool isDeleted;\r\n    }\r\n\r\n    Task[] private tasks;\r\n\r\n    mapping(uint256 => address) taskToOwner;\r\n\r\n    function addTasks(string memory taskText, bool isDeleted) external {\r\n\r\n        uint taskId = tasks.length;\r\n        tasks.push(Task(taskId, taskText, isDeleted));\r\n        taskToOwner[taskId] = msg.sender;\r\n\r\n        emit AddTask(msg.sender, taskId);\r\n    }\r\n\r\n\r\n    function getMyTasks() external view returns (Task[] memory) {\r\n\r\n        Task[] memory temporary = new Task[](tasks.length);\r\n        uint counter =0;\r\n\r\n        for(uint i=0; i<tasks.length; i++) {\r\n            if(taskToOwner[i] == msg.sender && tasks[i].isDeleted == false) {\r\n                temporary[counter] = tasks[i];\r\n                counter++;\r\n            }\r\n        }\r\n        Task[] memory result = new Task[](counter);\r\n        for (uint i=0; i<counter; i++) {\r\n            result[i] = temporary[i];\r\n        }\r\n        return result;\r\n    }\r\n\r\n    function deleteTask(uint taskId, bool isDeleted) external {\r\n        if(taskToOwner[taskId] == msg.sender) {\r\n            tasks[taskId].isDeleted = isDeleted;\r\n\r\n            emit DeleteTask(taskId, isDeleted);\r\n        }\r\n    }\r\n}",
  "sourcePath": "D:\\Next js\\web 3 projects\\todo-app\\backend\\contracts\\TodosContract.sol",
  "compiler": {
    "name": "solc",
    "version": "0.8.17+commit.8df45f5f.Emscripten.clang"
  },
  "schemaVersion": "3.4.11",
  "updatedAt": "2023-01-04T11:55:55.042Z",
  "devdoc": {
    "kind": "dev",
    "methods": {},
    "version": 1
  },
  "userdoc": {
    "kind": "user",
    "methods": {},
    "version": 1
  }
}